{
  "contractName": "FormContractWithOwner",
  "abi": [
    {
      "constant": true,
      "inputs": [],
      "name": "isEmpty",
      "outputs": [
        {
          "internalType": "bool",
          "name": "",
          "type": "bool"
        }
      ],
      "payable": false,
      "stateMutability": "view",
      "type": "function"
    },
    {
      "constant": false,
      "inputs": [
        {
          "internalType": "string",
          "name": "name",
          "type": "string"
        },
        {
          "internalType": "string",
          "name": "email",
          "type": "string"
        },
        {
          "internalType": "address",
          "name": "userAddr",
          "type": "address"
        }
      ],
      "name": "addNewUser",
      "outputs": [],
      "payable": false,
      "stateMutability": "nonpayable",
      "type": "function"
    },
    {
      "constant": true,
      "inputs": [],
      "name": "getUsersNum",
      "outputs": [
        {
          "internalType": "uint256",
          "name": "",
          "type": "uint256"
        }
      ],
      "payable": false,
      "stateMutability": "view",
      "type": "function"
    },
    {
      "constant": true,
      "inputs": [],
      "name": "getUserData",
      "outputs": [
        {
          "components": [
            {
              "internalType": "string",
              "name": "name",
              "type": "string"
            },
            {
              "internalType": "string",
              "name": "email",
              "type": "string"
            }
          ],
          "internalType": "struct FormContractWithOwner.FormData",
          "name": "",
          "type": "tuple"
        }
      ],
      "payable": false,
      "stateMutability": "view",
      "type": "function"
    },
    {
      "constant": true,
      "inputs": [],
      "name": "getUsersData",
      "outputs": [
        {
          "components": [
            {
              "internalType": "string",
              "name": "name",
              "type": "string"
            },
            {
              "internalType": "string",
              "name": "email",
              "type": "string"
            }
          ],
          "internalType": "struct FormContractWithOwner.FormData[]",
          "name": "",
          "type": "tuple[]"
        }
      ],
      "payable": false,
      "stateMutability": "view",
      "type": "function"
    }
  ],
  "bytecode": "0x60806040527355958faddf67d6051fe7f5f9bff015531c09d4ed6000806101000a81548173ffffffffffffffffffffffffffffffffffffffff021916908373ffffffffffffffffffffffffffffffffffffffff160217905550600060025534801561006957600080fd5b50611276806100796000396000f3fe608060405234801561001057600080fd5b50600436106100575760003560e01c806322e8c87d1461005c57806328942cba1461007a578063390f1eef14610098578063681fe70c146100b4578063fc6bd6dc146100d2575b600080fd5b6100646100f0565b604051610071919061107a565b60405180910390f35b610082610461565b60405161008f9190610fdd565b60405180910390f35b6100b260048036036100ad9190810190610c99565b6106ed565b005b6100bc610a24565b6040516100c99190610fff565b60405180910390f35b6100da610a30565b6040516100e7919061109c565b60405180910390f35b6100f8610b57565b61028e600160003373ffffffffffffffffffffffffffffffffffffffff1673ffffffffffffffffffffffffffffffffffffffff168152602001908152602001600020604051806040016040529081600082018054600181600116156101000203166002900480601f0160208091040260200160405190810160405280929190818152602001828054600181600116156101000203166002900480156101de5780601f106101b3576101008083540402835291602001916101de565b820191906000526020600020905b8154815290600101906020018083116101c157829003601f168201915b50505050508152602001600182018054600181600116156101000203166002900480601f0160208091040260200160405190810160405280929190818152602001828054600181600116156101000203166002900480156102805780601f1061025557610100808354040283529160200191610280565b820191906000526020600020905b81548152906001019060200180831161026357829003601f168201915b505050505081525050610a3a565b156102ce576040517f08c379a00000000000000000000000000000000000000000000000000000000081526004016102c59061101a565b60405180910390fd5b600160003373ffffffffffffffffffffffffffffffffffffffff1673ffffffffffffffffffffffffffffffffffffffff168152602001908152602001600020604051806040016040529081600082018054600181600116156101000203166002900480601f0160208091040260200160405190810160405280929190818152602001828054600181600116156101000203166002900480156103b15780601f10610386576101008083540402835291602001916103b1565b820191906000526020600020905b81548152906001019060200180831161039457829003601f168201915b50505050508152602001600182018054600181600116156101000203166002900480601f0160208091040260200160405190810160405280929190818152602001828054600181600116156101000203166002900480156104535780601f1061042857610100808354040283529160200191610453565b820191906000526020600020905b81548152906001019060200180831161043657829003601f168201915b505050505081525050905090565b606061046c33610afe565b6104ab576040517f08c379a00000000000000000000000000000000000000000000000000000000081526004016104a29061105a565b60405180910390fd5b60606002546040519080825280602002602001820160405280156104e957816020015b6104d6610b71565b8152602001906001900390816104ce5790505b50905060008090505b6002548110156106e557600160006003838154811061050d57fe5b9060005260206000200160009054906101000a900473ffffffffffffffffffffffffffffffffffffffff1673ffffffffffffffffffffffffffffffffffffffff1673ffffffffffffffffffffffffffffffffffffffff168152602001908152602001600020604051806040016040529081600082018054600181600116156101000203166002900480601f0160208091040260200160405190810160405280929190818152602001828054600181600116156101000203166002900480156106165780601f106105eb57610100808354040283529160200191610616565b820191906000526020600020905b8154815290600101906020018083116105f957829003601f168201915b50505050508152602001600182018054600181600116156101000203166002900480601f0160208091040260200160405190810160405280929190818152602001828054600181600116156101000203166002900480156106b85780601f1061068d576101008083540402835291602001916106b8565b820191906000526020600020905b81548152906001019060200180831161069b57829003601f168201915b5050505050815250508282815181106106cd57fe5b602002602001018190525080806001019150506104f2565b508091505090565b6106f633610afe565b610735576040517f08c379a000000000000000000000000000000000000000000000000000000000815260040161072c9061105a565b60405180910390fd5b6108cb600160008373ffffffffffffffffffffffffffffffffffffffff1673ffffffffffffffffffffffffffffffffffffffff168152602001908152602001600020604051806040016040529081600082018054600181600116156101000203166002900480601f01602080910402602001604051908101604052809291908181526020018280546001816001161561010002031660029004801561081b5780601f106107f05761010080835404028352916020019161081b565b820191906000526020600020905b8154815290600101906020018083116107fe57829003601f168201915b50505050508152602001600182018054600181600116156101000203166002900480601f0160208091040260200160405190810160405280929190818152602001828054600181600116156101000203166002900480156108bd5780601f10610892576101008083540402835291602001916108bd565b820191906000526020600020905b8154815290600101906020018083116108a057829003601f168201915b505050505081525050610a3a565b61090a576040517f08c379a00000000000000000000000000000000000000000000000000000000081526004016109019061103a565b60405180910390fd5b610912610b57565b604051806040016040528085815260200184815250905080600160008473ffffffffffffffffffffffffffffffffffffffff1673ffffffffffffffffffffffffffffffffffffffff1681526020019081526020016000206000820151816000019080519060200190610985929190610b8b565b5060208201518160010190805190602001906109a2929190610b8b565b5090505060038290806001815401808255809150509060018203906000526020600020016000909192909190916101000a81548173ffffffffffffffffffffffffffffffffffffffff021916908373ffffffffffffffffffffffffffffffffffffffff1602179055505060026000815480929190600101919050555050505050565b60008060025414905090565b6000600254905090565b6000604051602001610a4b90610fc8565b604051602081830303815290604052805190602001208260000151604051602001610a769190610fb1565b60405160208183030381529060405280519060200120148015610ae65750604051602001610aa390610fc8565b604051602081830303815290604052805190602001208260200151604051602001610ace9190610fb1565b60405160208183030381529060405280519060200120145b15610af45760019050610af9565b600090505b919050565b60008173ffffffffffffffffffffffffffffffffffffffff166000809054906101000a900473ffffffffffffffffffffffffffffffffffffffff1673ffffffffffffffffffffffffffffffffffffffff16149050919050565b604051806040016040528060608152602001606081525090565b604051806040016040528060608152602001606081525090565b828054600181600116156101000203166002900490600052602060002090601f016020900481019282601f10610bcc57805160ff1916838001178555610bfa565b82800160010185558215610bfa579182015b82811115610bf9578251825591602001919060010190610bde565b5b509050610c079190610c0b565b5090565b610c2d91905b80821115610c29576000816000905550600101610c11565b5090565b90565b600081359050610c3f8161121c565b92915050565b600082601f830112610c5657600080fd5b8135610c69610c64826110e4565b6110b7565b91508082526020830160208301858383011115610c8557600080fd5b610c908382846111c9565b50505092915050565b600080600060608486031215610cae57600080fd5b600084013567ffffffffffffffff811115610cc857600080fd5b610cd486828701610c45565b935050602084013567ffffffffffffffff811115610cf157600080fd5b610cfd86828701610c45565b9250506040610d0e86828701610c30565b9150509250925092565b6000610d248383610f5e565b905092915050565b6000610d3782611120565b610d418185611143565b935083602082028501610d5385611110565b8060005b85811015610d8f5784840389528151610d708582610d18565b9450610d7b83611136565b925060208a01995050600181019050610d57565b50829750879550505050505092915050565b610daa81611193565b82525050565b6000610dbb8261112b565b610dc58185611154565b9350610dd58185602086016111d8565b610dde8161120b565b840191505092915050565b6000610df48261112b565b610dfe8185611176565b9350610e0e8185602086016111d8565b80840191505092915050565b6000610e27601683611165565b91507f5573657220646f6573206e6f742065786973742e2e2e000000000000000000006000830152602082019050919050565b6000610e67601683611165565b91507f5573657220616c7265616479206578697374732e2e2e000000000000000000006000830152602082019050919050565b6000610ea7600083611176565b9150600082019050919050565b6000610ec1603c83611165565b91507f5065726d697373696f6e2044656e69656421204f6e6c7920746865206f776e6560008301527f722063616e20706572666f726d2074686973206f7065726174696f6e000000006020830152604082019050919050565b60006040830160008301518482036000860152610f378282610db0565b91505060208301518482036020860152610f518282610db0565b9150508091505092915050565b60006040830160008301518482036000860152610f7b8282610db0565b91505060208301518482036020860152610f958282610db0565b9150508091505092915050565b610fab816111bf565b82525050565b6000610fbd8284610de9565b915081905092915050565b6000610fd382610e9a565b9150819050919050565b60006020820190508181036000830152610ff78184610d2c565b905092915050565b60006020820190506110146000830184610da1565b92915050565b6000602082019050818103600083015261103381610e1a565b9050919050565b6000602082019050818103600083015261105381610e5a565b9050919050565b6000602082019050818103600083015261107381610eb4565b9050919050565b600060208201905081810360008301526110948184610f1a565b905092915050565b60006020820190506110b16000830184610fa2565b92915050565b6000604051905081810181811067ffffffffffffffff821117156110da57600080fd5b8060405250919050565b600067ffffffffffffffff8211156110fb57600080fd5b601f19601f8301169050602081019050919050565b6000819050602082019050919050565b600081519050919050565b600081519050919050565b6000602082019050919050565b600082825260208201905092915050565b600082825260208201905092915050565b600082825260208201905092915050565b600081905092915050565b600061118c8261119f565b9050919050565b60008115159050919050565b600073ffffffffffffffffffffffffffffffffffffffff82169050919050565b6000819050919050565b82818337600083830152505050565b60005b838110156111f65780820151818401526020810190506111db565b83811115611205576000848401525b50505050565b6000601f19601f8301169050919050565b61122581611181565b811461123057600080fd5b5056fea365627a7a723158209e4135f523be8c1150bbb5aafb7fa92e663543e44c18af374b227fad0fed22b76c6578706572696d656e74616cf564736f6c63430005100040",
  "source": "// SPDX-License-Identifier: UNLICENSED ( to remove the warning )\npragma solidity ^0.5.0;\npragma experimental ABIEncoderV2;\n\n// Notes:\n// Solidity triggers a require-type of exception: \n// - when you call require with arguments that result in false.\n\ncontract FormContractWithOwner {\n    struct FormData {\n        string name;\n        string email;\n    }\n\n    address private owner = 0x55958fADDF67d6051FE7F5F9bfF015531C09d4eD;\n    //address private owner = 0xA2696205AF6963343dBb30dc04ED55B0de2D0dd8;\n    mapping (address => FormData) private testStorage;\n    // msg.sender will be the person who's currently connecting with the contract.\n    uint private usersNum = 0;\n\n    address[] private addressesList;    // not sure about it\n\n    // Utility functions\n\n    // check if the storage is empty\n    function isEmpty() public view returns(bool) {\n        return usersNum == 0;\n    }\n    // check if the address is the owner\n    function isOwner(address addr) private view returns(bool) {\n        return owner == addr;\n    }\n    // check if the FormData arg is default (not initialized)\n    function isDefault(FormData memory formData) private pure returns(bool) {\n        if (keccak256(abi.encodePacked(formData.name)) == keccak256(abi.encodePacked(\"\")) &&\n            keccak256(abi.encodePacked(formData.email)) == keccak256(abi.encodePacked(\"\"))) {\n            return true;\n        }\n        return false; // no default value\n    }\n\n    // Operations\n\n    // Transaction: add a new user data into the storage\n    function addNewUser(string memory name, string memory email, address userAddr) public {\n\n        // Check if the sender of this transaction is the owner\n        require(isOwner(msg.sender), \"Permission Denied! Only the owner can perform this operation\");\n\n        // Check if that address already in the map\n        require(isDefault(testStorage[userAddr]), \"User already exists...\"); // not default == empty\n\n        // Else\n        FormData memory newUser = FormData(name, email);\n        testStorage[userAddr] = newUser;\n        addressesList.push(userAddr);\n        usersNum++;\n    }\n\n    // Call: get the number of users saved into the storage\n    function getUsersNum() public view returns(uint) {\n        return usersNum;\n    }\n\n    // Call: get the user's data; user's data can be read only by the user itself\n    function getUserData() public view returns(FormData memory) {\n\n        // Check if the address is stored in the map\n        require(!isDefault(testStorage[msg.sender]), \"User does not exist...\");\n\n        // Else\n        return testStorage[msg.sender];\n    }\n\n    // Call: allows the owner to read off all the data stored\n    // Maybe, in the future create a whitelist of organization addrs which can read off the stored data\n    function getUsersData() public view returns(FormData[] memory) {\n\n        // Check if the sender of this call is the owner\n        require(isOwner(msg.sender), \"Permission Denied! Only the owner can perform this operation\");\n\n        FormData[] memory ret = new FormData[](usersNum);\n        for (uint i = 0; i < usersNum; i++) {\n            ret[i] = testStorage[addressesList[i]];\n        }\n\n        return ret;\n\n    }\n\n}",
  "sourcePath": "/home/roxen/workUrFreedom/blockchain/contracts/FormContractWithOwner.sol",
  "compiler": {
    "name": "solc",
    "version": "0.5.16+commit.9c3226ce.Emscripten.clang"
  },
  "schemaVersion": "3.1.0",
  "updatedAt": "2020-08-19T08:38:30.044Z",
  "networkType": "ethereum",
  "devdoc": {
    "methods": {}
  },
  "userdoc": {
    "methods": {}
  }
}