{
  "contractName": "TestFormContract",
  "abi": [
    {
      "constant": true,
      "inputs": [],
      "name": "isEmpty",
      "outputs": [
        {
          "internalType": "bool",
          "name": "",
          "type": "bool"
        }
      ],
      "payable": false,
      "stateMutability": "view",
      "type": "function"
    },
    {
      "constant": false,
      "inputs": [
        {
          "internalType": "string",
          "name": "name",
          "type": "string"
        },
        {
          "internalType": "string",
          "name": "email",
          "type": "string"
        }
      ],
      "name": "addNewUser",
      "outputs": [],
      "payable": false,
      "stateMutability": "nonpayable",
      "type": "function"
    },
    {
      "constant": true,
      "inputs": [],
      "name": "getUsersNum",
      "outputs": [
        {
          "internalType": "uint256",
          "name": "",
          "type": "uint256"
        }
      ],
      "payable": false,
      "stateMutability": "view",
      "type": "function"
    },
    {
      "constant": true,
      "inputs": [],
      "name": "getUserData",
      "outputs": [
        {
          "components": [
            {
              "internalType": "string",
              "name": "name",
              "type": "string"
            },
            {
              "internalType": "string",
              "name": "email",
              "type": "string"
            }
          ],
          "internalType": "struct TestFormContract.FormData",
          "name": "",
          "type": "tuple"
        }
      ],
      "payable": false,
      "stateMutability": "view",
      "type": "function"
    }
  ],
  "bytecode": "0x6080604052600060015534801561001557600080fd5b50610c7c806100256000396000f3fe608060405234801561001057600080fd5b506004361061004c5760003560e01c806322e8c87d14610051578063579e41381461006f578063681fe70c1461008b578063fc6bd6dc146100a9575b600080fd5b6100596100c7565b6040516100669190610b02565b60405180910390f35b610089600480360361008491908101906108a9565b610436565b005b6100936106bc565b6040516100a09190610aa7565b60405180910390f35b6100b16106c8565b6040516100be9190610b24565b60405180910390f35b6100cf610796565b6102646000803373ffffffffffffffffffffffffffffffffffffffff1673ffffffffffffffffffffffffffffffffffffffff168152602001908152602001600020604051806040016040529081600082018054600181600116156101000203166002900480601f0160208091040260200160405190810160405280929190818152602001828054600181600116156101000203166002900480156101b45780601f10610189576101008083540402835291602001916101b4565b820191906000526020600020905b81548152906001019060200180831161019757829003601f168201915b50505050508152602001600182018054600181600116156101000203166002900480601f0160208091040260200160405190810160405280929190818152602001828054600181600116156101000203166002900480156102565780601f1061022b57610100808354040283529160200191610256565b820191906000526020600020905b81548152906001019060200180831161023957829003601f168201915b5050505050815250506106d2565b156102a4576040517f08c379a000000000000000000000000000000000000000000000000000000000815260040161029b90610ac2565b60405180910390fd5b6000803373ffffffffffffffffffffffffffffffffffffffff1673ffffffffffffffffffffffffffffffffffffffff168152602001908152602001600020604051806040016040529081600082018054600181600116156101000203166002900480601f0160208091040260200160405190810160405280929190818152602001828054600181600116156101000203166002900480156103865780601f1061035b57610100808354040283529160200191610386565b820191906000526020600020905b81548152906001019060200180831161036957829003601f168201915b50505050508152602001600182018054600181600116156101000203166002900480601f0160208091040260200160405190810160405280929190818152602001828054600181600116156101000203166002900480156104285780601f106103fd57610100808354040283529160200191610428565b820191906000526020600020905b81548152906001019060200180831161040b57829003601f168201915b505050505081525050905090565b6105cb6000803373ffffffffffffffffffffffffffffffffffffffff1673ffffffffffffffffffffffffffffffffffffffff168152602001908152602001600020604051806040016040529081600082018054600181600116156101000203166002900480601f01602080910402602001604051908101604052809291908181526020018280546001816001161561010002031660029004801561051b5780601f106104f05761010080835404028352916020019161051b565b820191906000526020600020905b8154815290600101906020018083116104fe57829003601f168201915b50505050508152602001600182018054600181600116156101000203166002900480601f0160208091040260200160405190810160405280929190818152602001828054600181600116156101000203166002900480156105bd5780601f10610592576101008083540402835291602001916105bd565b820191906000526020600020905b8154815290600101906020018083116105a057829003601f168201915b5050505050815250506106d2565b61060a576040517f08c379a000000000000000000000000000000000000000000000000000000000815260040161060190610ae2565b60405180910390fd5b610612610796565b6040518060400160405280848152602001838152509050806000803373ffffffffffffffffffffffffffffffffffffffff1673ffffffffffffffffffffffffffffffffffffffff16815260200190815260200160002060008201518160000190805190602001906106849291906107b0565b5060208201518160010190805190602001906106a19291906107b0565b50905050600160008154809291906001019190505550505050565b60008060015414905090565b6000600154905090565b60006040516020016106e390610a92565b60405160208183030381529060405280519060200120826000015160405160200161070e9190610a7b565b6040516020818303038152906040528051906020012014801561077e575060405160200161073b90610a92565b6040516020818303038152906040528051906020012082602001516040516020016107669190610a7b565b60405160208183030381529060405280519060200120145b1561078c5760019050610791565b600090505b919050565b604051806040016040528060608152602001606081525090565b828054600181600116156101000203166002900490600052602060002090601f016020900481019282601f106107f157805160ff191683800117855561081f565b8280016001018555821561081f579182015b8281111561081e578251825591602001919060010190610803565b5b50905061082c9190610830565b5090565b61085291905b8082111561084e576000816000905550600101610836565b5090565b90565b600082601f83011261086657600080fd5b813561087961087482610b6c565b610b3f565b9150808252602083016020830185838301111561089557600080fd5b6108a0838284610be6565b50505092915050565b600080604083850312156108bc57600080fd5b600083013567ffffffffffffffff8111156108d657600080fd5b6108e285828601610855565b925050602083013567ffffffffffffffff8111156108ff57600080fd5b61090b85828601610855565b9150509250929050565b61091e81610bd0565b82525050565b600061092f82610b98565b6109398185610ba3565b9350610949818560208601610bf5565b61095281610c28565b840191505092915050565b600061096882610b98565b6109728185610bc5565b9350610982818560208601610bf5565b80840191505092915050565b600061099b601683610bb4565b91507f5573657220646f6573206e6f742065786973742e2e2e000000000000000000006000830152602082019050919050565b60006109db601683610bb4565b91507f5573657220616c7265616479206578697374732e2e2e000000000000000000006000830152602082019050919050565b6000610a1b600083610bc5565b9150600082019050919050565b60006040830160008301518482036000860152610a458282610924565b91505060208301518482036020860152610a5f8282610924565b9150508091505092915050565b610a7581610bdc565b82525050565b6000610a87828461095d565b915081905092915050565b6000610a9d82610a0e565b9150819050919050565b6000602082019050610abc6000830184610915565b92915050565b60006020820190508181036000830152610adb8161098e565b9050919050565b60006020820190508181036000830152610afb816109ce565b9050919050565b60006020820190508181036000830152610b1c8184610a28565b905092915050565b6000602082019050610b396000830184610a6c565b92915050565b6000604051905081810181811067ffffffffffffffff82111715610b6257600080fd5b8060405250919050565b600067ffffffffffffffff821115610b8357600080fd5b601f19601f8301169050602081019050919050565b600081519050919050565b600082825260208201905092915050565b600082825260208201905092915050565b600081905092915050565b60008115159050919050565b6000819050919050565b82818337600083830152505050565b60005b83811015610c13578082015181840152602081019050610bf8565b83811115610c22576000848401525b50505050565b6000601f19601f830116905091905056fea365627a7a72315820bafc0ba1e97faa311b8f973b274f7a8dbf8ed7292d6f4ca976faf8de78ee7c866c6578706572696d656e74616cf564736f6c63430005100040",
  "source": "// SPDX-License-Identifier: UNLICENSED ( to remove the warning )\npragma solidity ^0.5.0;\npragma experimental ABIEncoderV2;\n\ncontract TestFormContract {\n    struct FormData {\n        string name;\n        string email;\n    }\n\n    mapping (address => FormData) private testStorage;\n    // msg.sender will be the person who currently connecting with the contract.\n    uint private usersNum = 0;\n\n    function isEmpty() public view returns(bool) {\n        return usersNum == 0;\n    }\n\n    function isDefault(FormData memory formData) private pure returns(bool) {\n        if (keccak256(abi.encodePacked(formData.name)) == keccak256(abi.encodePacked(\"\")) &&\n            keccak256(abi.encodePacked(formData.email)) == keccak256(abi.encodePacked(\"\"))) {\n            return true;\n        }\n        return false; // no default value\n    }\n\n    // Transaction\n    function addNewUser(string memory name, string memory email) public {\n        // Check if that address already in the map\n        require(isDefault(testStorage[msg.sender]), \"User already exists...\"); // not default == empty\n\n        // Else\n        FormData memory newUser = FormData(name, email);\n        testStorage[msg.sender] = newUser;\n        usersNum++;\n    }\n\n    function getUsersNum() public view returns(uint) {\n        return usersNum;\n    }\n\n    function getUserData() public view returns(FormData memory) {\n        // Check if the address is stored in the map\n        require(!isDefault(testStorage[msg.sender]), \"User does not exist...\");\n\n        // Else\n        return testStorage[msg.sender];\n    }\n\n}",
  "sourcePath": "/home/roxen/workUrFreedom/blockchain/contracts/TestSC.sol",
  "compiler": {
    "name": "solc",
    "version": "0.5.16+commit.9c3226ce.Emscripten.clang"
  },
  "schemaVersion": "3.1.0",
  "updatedAt": "2020-06-30T10:42:03.906Z",
  "networkType": "ethereum",
  "devdoc": {
    "methods": {}
  },
  "userdoc": {
    "methods": {}
  }
}