{
  "contractName": "WorkUrFreedomContract",
  "abi": [
    {
      "constant": true,
      "inputs": [],
      "name": "isEmpty",
      "outputs": [
        {
          "internalType": "bool",
          "name": "",
          "type": "bool"
        }
      ],
      "payable": false,
      "stateMutability": "view",
      "type": "function"
    },
    {
      "constant": false,
      "inputs": [
        {
          "internalType": "address",
          "name": "userAddr",
          "type": "address"
        },
        {
          "internalType": "uint256[9]",
          "name": "answers",
          "type": "uint256[9]"
        }
      ],
      "name": "addDemographicsAnwsers",
      "outputs": [],
      "payable": false,
      "stateMutability": "nonpayable",
      "type": "function"
    },
    {
      "constant": false,
      "inputs": [
        {
          "internalType": "address",
          "name": "userAddr",
          "type": "address"
        },
        {
          "internalType": "uint256[9]",
          "name": "answers",
          "type": "uint256[9]"
        }
      ],
      "name": "addExperienceAnwsers",
      "outputs": [],
      "payable": false,
      "stateMutability": "nonpayable",
      "type": "function"
    },
    {
      "constant": false,
      "inputs": [
        {
          "internalType": "address",
          "name": "userAddr",
          "type": "address"
        },
        {
          "internalType": "uint256[60]",
          "name": "answers",
          "type": "uint256[60]"
        }
      ],
      "name": "addSkillsAnwsers",
      "outputs": [],
      "payable": false,
      "stateMutability": "nonpayable",
      "type": "function"
    },
    {
      "constant": false,
      "inputs": [
        {
          "internalType": "address",
          "name": "userAddr",
          "type": "address"
        },
        {
          "internalType": "uint256[78]",
          "name": "answers",
          "type": "uint256[78]"
        }
      ],
      "name": "addUserData",
      "outputs": [],
      "payable": false,
      "stateMutability": "nonpayable",
      "type": "function"
    },
    {
      "constant": false,
      "inputs": [
        {
          "internalType": "address",
          "name": "userAddr",
          "type": "address"
        }
      ],
      "name": "resetUserData",
      "outputs": [],
      "payable": false,
      "stateMutability": "nonpayable",
      "type": "function"
    },
    {
      "constant": true,
      "inputs": [],
      "name": "getUsersNum",
      "outputs": [
        {
          "internalType": "uint256",
          "name": "",
          "type": "uint256"
        }
      ],
      "payable": false,
      "stateMutability": "view",
      "type": "function"
    },
    {
      "constant": true,
      "inputs": [],
      "name": "getDemographicsData",
      "outputs": [
        {
          "internalType": "uint256[9]",
          "name": "",
          "type": "uint256[9]"
        }
      ],
      "payable": false,
      "stateMutability": "view",
      "type": "function"
    },
    {
      "constant": true,
      "inputs": [],
      "name": "getExperienceData",
      "outputs": [
        {
          "internalType": "uint256[9]",
          "name": "",
          "type": "uint256[9]"
        }
      ],
      "payable": false,
      "stateMutability": "view",
      "type": "function"
    },
    {
      "constant": true,
      "inputs": [],
      "name": "getSkillsData",
      "outputs": [
        {
          "internalType": "uint256[60]",
          "name": "",
          "type": "uint256[60]"
        }
      ],
      "payable": false,
      "stateMutability": "view",
      "type": "function"
    },
    {
      "constant": true,
      "inputs": [],
      "name": "getUserData",
      "outputs": [
        {
          "internalType": "uint256[79]",
          "name": "",
          "type": "uint256[79]"
        }
      ],
      "payable": false,
      "stateMutability": "view",
      "type": "function"
    },
    {
      "constant": true,
      "inputs": [],
      "name": "getUsersData",
      "outputs": [
        {
          "internalType": "uint256[79][]",
          "name": "",
          "type": "uint256[79][]"
        }
      ],
      "payable": false,
      "stateMutability": "view",
      "type": "function"
    }
  ],
  "bytecode": "0x60806040527355958faddf67d6051fe7f5f9bff015531c09d4ed6000806101000a81548173ffffffffffffffffffffffffffffffffffffffff021916908373ffffffffffffffffffffffffffffffffffffffff160217905550600060025534801561006957600080fd5b50611baf806100796000396000f3fe608060405234801561001057600080fd5b50600436106100b45760003560e01c8063b6818cc511610071578063b6818cc51461016b578063bda30b9a14610189578063c479e36b146101a5578063d0f43560146101c1578063fc6bd6dc146101dd578063ff7d3acc146101fb576100b4565b8063048d3784146100b957806322e8c87d146100d757806328942cba146100f55780633cca53941461011357806349f5bdd31461012f578063681fe70c1461014d575b600080fd5b6100c1610217565b6040516100ce91906118d3565b60405180910390f35b6100df610372565b6040516100ec91906118b7565b60405180910390f35b6100fd6104bc565b60405161010a9190611879565b60405180910390f35b61012d60048036036101289190810190611504565b610635565b005b610137610852565b604051610144919061189b565b60405180910390f35b6101556109ad565b60405161016291906118ef565b60405180910390f35b6101736109b9565b60405161018091906118d3565b60405180910390f35b6101a3600480360361019e91908101906114db565b610b14565b005b6101bf60048036036101ba919081019061157e565b610be0565b005b6101db60048036036101d69190810190611541565b610dfd565b005b6101e561101a565b6040516101f2919061194a565b60405180910390f35b6102156004803603610210919081019061157e565b611024565b005b61021f6112c9565b6102a2600160003373ffffffffffffffffffffffffffffffffffffffff1673ffffffffffffffffffffffffffffffffffffffff168152602001908152602001600020604f806020026040519081016040528092919082604f8015610298576020028201915b815481526020019060010190808311610284575b5050505050611241565b6102e1576040517f08c379a00000000000000000000000000000000000000000000000000000000081526004016102d89061190a565b60405180910390fd5b6102e96112c9565b6000600190505b600a81101561036a57600160003373ffffffffffffffffffffffffffffffffffffffff1673ffffffffffffffffffffffffffffffffffffffff16815260200190815260200160002081604f811061034357fe5b015482600183036009811061035457fe5b60200201818152505080806001019150506102f0565b508091505090565b61037a6112ec565b6103fd600160003373ffffffffffffffffffffffffffffffffffffffff1673ffffffffffffffffffffffffffffffffffffffff168152602001908152602001600020604f806020026040519081016040528092919082604f80156103f3576020028201915b8154815260200190600101908083116103df575b5050505050611241565b61043c576040517f08c379a00000000000000000000000000000000000000000000000000000000081526004016104339061190a565b60405180910390fd5b600160003373ffffffffffffffffffffffffffffffffffffffff1673ffffffffffffffffffffffffffffffffffffffff168152602001908152602001600020604f806020026040519081016040528092919082604f80156104b2576020028201915b81548152602001906001019080831161049e575b5050505050905090565b60606104c733611270565b610506576040517f08c379a00000000000000000000000000000000000000000000000000000000081526004016104fd9061192a565b60405180910390fd5b606060025460405190808252806020026020018201604052801561054457816020015b61053161130f565b8152602001906001900390816105295790505b50905060008090505b60025481101561062d57600160006003838154811061056857fe5b9060005260206000200160009054906101000a900473ffffffffffffffffffffffffffffffffffffffff1673ffffffffffffffffffffffffffffffffffffffff1673ffffffffffffffffffffffffffffffffffffffff168152602001908152602001600020604f806020026040519081016040528092919082604f8015610604576020028201915b8154815260200190600101908083116105f0575b505050505082828151811061061557fe5b6020026020010181905250808060010191505061054d565b508091505090565b61063e33611270565b61067d576040517f08c379a00000000000000000000000000000000000000000000000000000000081526004016106749061192a565b60405180910390fd5b610700600160008473ffffffffffffffffffffffffffffffffffffffff1673ffffffffffffffffffffffffffffffffffffffff168152602001908152602001600020604f806020026040519081016040528092919082604f80156106f6576020028201915b8154815260200190600101908083116106e2575b5050505050611241565b6107ce5760018060008473ffffffffffffffffffffffffffffffffffffffff1673ffffffffffffffffffffffffffffffffffffffff1681526020019081526020016000206000604f811061075057fe5b018190555060026000815480929190600101919050555060038290806001815401808255809150509060018203906000526020600020016000909192909190916101000a81548173ffffffffffffffffffffffffffffffffffffffff021916908373ffffffffffffffffffffffffffffffffffffffff160217905550505b60008090505b603c81101561084d578181603c81106107e957fe5b6020020151600160008573ffffffffffffffffffffffffffffffffffffffff1673ffffffffffffffffffffffffffffffffffffffff16815260200190815260200160002060138301604f811061083b57fe5b018190555080806001019150506107d4565b505050565b61085a611332565b6108dd600160003373ffffffffffffffffffffffffffffffffffffffff1673ffffffffffffffffffffffffffffffffffffffff168152602001908152602001600020604f806020026040519081016040528092919082604f80156108d3576020028201915b8154815260200190600101908083116108bf575b5050505050611241565b61091c576040517f08c379a00000000000000000000000000000000000000000000000000000000081526004016109139061190a565b60405180910390fd5b610924611332565b6000601390505b604f8110156109a557600160003373ffffffffffffffffffffffffffffffffffffffff1673ffffffffffffffffffffffffffffffffffffffff16815260200190815260200160002081604f811061097e57fe5b01548260138303603c811061098f57fe5b602002018181525050808060010191505061092b565b508091505090565b60008060025414905090565b6109c16112c9565b610a44600160003373ffffffffffffffffffffffffffffffffffffffff1673ffffffffffffffffffffffffffffffffffffffff168152602001908152602001600020604f806020026040519081016040528092919082604f8015610a3a576020028201915b815481526020019060010190808311610a26575b5050505050611241565b610a83576040517f08c379a0000000000000000000000000000000000000000000000000000000008152600401610a7a9061190a565b60405180910390fd5b610a8b6112c9565b6000600a90505b6013811015610b0c57600160003373ffffffffffffffffffffffffffffffffffffffff1673ffffffffffffffffffffffffffffffffffffffff16815260200190815260200160002081604f8110610ae557fe5b015482600a830360098110610af657fe5b6020020181815250508080600101915050610a92565b508091505090565b610b1d33611270565b610b5c576040517f08c379a0000000000000000000000000000000000000000000000000000000008152600401610b539061192a565b60405180910390fd5b60008090505b604f811015610bc9576000600160008473ffffffffffffffffffffffffffffffffffffffff1673ffffffffffffffffffffffffffffffffffffffff16815260200190815260200160002082604f8110610bb757fe5b01819055508080600101915050610b62565b506002600081548092919060019003919050555050565b610be933611270565b610c28576040517f08c379a0000000000000000000000000000000000000000000000000000000008152600401610c1f9061192a565b60405180910390fd5b610cab600160008473ffffffffffffffffffffffffffffffffffffffff1673ffffffffffffffffffffffffffffffffffffffff168152602001908152602001600020604f806020026040519081016040528092919082604f8015610ca1576020028201915b815481526020019060010190808311610c8d575b5050505050611241565b610d795760018060008473ffffffffffffffffffffffffffffffffffffffff1673ffffffffffffffffffffffffffffffffffffffff1681526020019081526020016000206000604f8110610cfb57fe5b018190555060026000815480929190600101919050555060038290806001815401808255809150509060018203906000526020600020016000909192909190916101000a81548173ffffffffffffffffffffffffffffffffffffffff021916908373ffffffffffffffffffffffffffffffffffffffff160217905550505b60008090505b6009811015610df857818160098110610d9457fe5b6020020151600160008573ffffffffffffffffffffffffffffffffffffffff1673ffffffffffffffffffffffffffffffffffffffff16815260200190815260200160002060018301604f8110610de657fe5b01819055508080600101915050610d7f565b505050565b610e0633611270565b610e45576040517f08c379a0000000000000000000000000000000000000000000000000000000008152600401610e3c9061192a565b60405180910390fd5b610ec8600160008473ffffffffffffffffffffffffffffffffffffffff1673ffffffffffffffffffffffffffffffffffffffff168152602001908152602001600020604f806020026040519081016040528092919082604f8015610ebe576020028201915b815481526020019060010190808311610eaa575b5050505050611241565b610f965760018060008473ffffffffffffffffffffffffffffffffffffffff1673ffffffffffffffffffffffffffffffffffffffff1681526020019081526020016000206000604f8110610f1857fe5b018190555060026000815480929190600101919050555060038290806001815401808255809150509060018203906000526020600020016000909192909190916101000a81548173ffffffffffffffffffffffffffffffffffffffff021916908373ffffffffffffffffffffffffffffffffffffffff160217905550505b60008090505b604e811015611015578181604e8110610fb157fe5b6020020151600160008573ffffffffffffffffffffffffffffffffffffffff1673ffffffffffffffffffffffffffffffffffffffff16815260200190815260200160002060018301604f811061100357fe5b01819055508080600101915050610f9c565b505050565b6000600254905090565b61102d33611270565b61106c576040517f08c379a00000000000000000000000000000000000000000000000000000000081526004016110639061192a565b60405180910390fd5b6110ef600160008473ffffffffffffffffffffffffffffffffffffffff1673ffffffffffffffffffffffffffffffffffffffff168152602001908152602001600020604f806020026040519081016040528092919082604f80156110e5576020028201915b8154815260200190600101908083116110d1575b5050505050611241565b6111bd5760018060008473ffffffffffffffffffffffffffffffffffffffff1673ffffffffffffffffffffffffffffffffffffffff1681526020019081526020016000206000604f811061113f57fe5b018190555060026000815480929190600101919050555060038290806001815401808255809150509060018203906000526020600020016000909192909190916101000a81548173ffffffffffffffffffffffffffffffffffffffff021916908373ffffffffffffffffffffffffffffffffffffffff160217905550505b60008090505b600981101561123c578181600981106111d857fe5b6020020151600160008573ffffffffffffffffffffffffffffffffffffffff1673ffffffffffffffffffffffffffffffffffffffff168152602001908152602001600020600a8301604f811061122a57fe5b018190555080806001019150506111c3565b505050565b60006001826000604f811061125257fe5b60200201511415611266576001905061126b565b600090505b919050565b60008173ffffffffffffffffffffffffffffffffffffffff166000809054906101000a900473ffffffffffffffffffffffffffffffffffffffff1673ffffffffffffffffffffffffffffffffffffffff16149050919050565b604051806101200160405280600990602082028038833980820191505090505090565b604051806109e00160405280604f90602082028038833980820191505090505090565b604051806109e00160405280604f90602082028038833980820191505090505090565b604051806107800160405280603c90602082028038833980820191505090505090565b60008135905061136481611b3e565b92915050565b600082601f83011261137b57600080fd5b603c61138e61138982611992565b611965565b915081838560208402820111156113a457600080fd5b60005b838110156113d457816113ba88826114c6565b8452602084019350602083019250506001810190506113a7565b5050505092915050565b600082601f8301126113ef57600080fd5b604e6114026113fd826119b4565b611965565b9150818385602084028201111561141857600080fd5b60005b83811015611448578161142e88826114c6565b84526020840193506020830192505060018101905061141b565b5050505092915050565b600082601f83011261146357600080fd5b6009611476611471826119d6565b611965565b9150818385602084028201111561148c57600080fd5b60005b838110156114bc57816114a288826114c6565b84526020840193506020830192505060018101905061148f565b5050505092915050565b6000813590506114d581611b55565b92915050565b6000602082840312156114ed57600080fd5b60006114fb84828501611355565b91505092915050565b6000806107a0838503121561151857600080fd5b600061152685828601611355565b92505060206115378582860161136a565b9150509250929050565b6000806109e0838503121561155557600080fd5b600061156385828601611355565b9250506020611574858286016113de565b9150509250929050565b600080610140838503121561159257600080fd5b60006115a085828601611355565b92505060206115b185828601611452565b9150509250929050565b60006115c783836116f8565b6109e08301905092915050565b60006115e0838361185b565b60208301905092915050565b60006115f782611a30565b6116018185611aa8565b935061160c836119f8565b8060005b8381101561163d57815161162488826115bb565b975061162f83611a67565b925050600181019050611610565b5085935050505092915050565b61165381611a3b565b61165d8184611ab9565b925061166882611a08565b8060005b8381101561169957815161168087826115d4565b965061168b83611a74565b92505060018101905061166c565b505050505050565b6116aa81611a51565b6116b48184611acf565b92506116bf82611a1c565b8060005b838110156116f05781516116d787826115d4565b96506116e283611a8e565b9250506001810190506116c3565b505050505050565b61170181611a46565b61170b8184611ac4565b925061171682611a12565b8060005b8381101561174757815161172e87826115d4565b965061173983611a81565b92505060018101905061171a565b505050505050565b61175881611a5c565b6117628184611ada565b925061176d82611a26565b8060005b8381101561179e57815161178587826115d4565b965061179083611a9b565b925050600181019050611771565b505050505050565b6117af81611b08565b82525050565b60006117c2601683611ae5565b91507f5573657220646f6573206e6f742065786973742e2e2e000000000000000000006000830152602082019050919050565b6000611802603c83611ae5565b91507f5065726d697373696f6e2044656e69656421204f6e6c7920746865206f776e6560008301527f722063616e20706572666f726d2074686973206f7065726174696f6e000000006020830152604082019050919050565b61186481611b34565b82525050565b61187381611b34565b82525050565b6000602082019050818103600083015261189381846115ec565b905092915050565b6000610780820190506118b1600083018461164a565b92915050565b60006109e0820190506118cd60008301846116a1565b92915050565b6000610120820190506118e9600083018461174f565b92915050565b600060208201905061190460008301846117a6565b92915050565b60006020820190508181036000830152611923816117b5565b9050919050565b60006020820190508181036000830152611943816117f5565b9050919050565b600060208201905061195f600083018461186a565b92915050565b6000604051905081810181811067ffffffffffffffff8211171561198857600080fd5b8060405250919050565b600067ffffffffffffffff8211156119a957600080fd5b602082029050919050565b600067ffffffffffffffff8211156119cb57600080fd5b602082029050919050565b600067ffffffffffffffff8211156119ed57600080fd5b602082029050919050565b6000819050602082019050919050565b6000819050919050565b6000819050919050565b6000819050919050565b6000819050919050565b600081519050919050565b6000603c9050919050565b6000604f9050919050565b6000604f9050919050565b600060099050919050565b6000602082019050919050565b6000602082019050919050565b6000602082019050919050565b6000602082019050919050565b6000602082019050919050565b600082825260208201905092915050565b600081905092915050565b600081905092915050565b600081905092915050565b600081905092915050565b600082825260208201905092915050565b6000611b0182611b14565b9050919050565b60008115159050919050565b600073ffffffffffffffffffffffffffffffffffffffff82169050919050565b6000819050919050565b611b4781611af6565b8114611b5257600080fd5b50565b611b5e81611b34565b8114611b6957600080fd5b5056fea365627a7a72315820c4b5c1c63b1f83df34a2c50aad3078423e090825de7aaeba61089a7827a40f8c6c6578706572696d656e74616cf564736f6c63430005100040",
  "source": "// SPDX-License-Identifier: UNLICENSED ( to remove the warning )\npragma solidity ^0.5.0;\npragma experimental ABIEncoderV2;\n\n// Notes:\n// Solidity triggers a require-type of exception:\n// - when you call require with arguments that result in false.\n\ncontract WorkUrFreedomContract {\n\n    address private owner = 0x55958fADDF67d6051FE7F5F9bfF015531C09d4eD; // in Truffle\n    // address private owner = 0x849f9Bd5869E436688F3BaeAbB552B548aC091b2; // in Remix\n\n    mapping (address => uint[79]) private userData;\n    // 0:       existance\n    // 1-9:     demographics\n    // 10-18:   experience\n    // 19-78:   skills\n\n    // msg.sender will be the person who's currently connecting with the contract.\n    uint private usersNum = 0;\n\n    address[] private addressesList;    // this is used ONLY to allow the owner to get all the user's data\n\n    // Utility functions\n\n    // check if the storage is empty\n    function isEmpty() public view returns(bool) {\n        return usersNum == 0;\n    }\n    // check if the address is the owner\n    function isOwner(address addr) private view returns(bool) {\n        return owner == addr;\n    }\n    // check if the address is already present in the mapping --> the first elemement in the array states if it exists or not\n    function exists(uint[79] memory arr) private pure returns(bool) {\n        if (arr[0] == 1) {\n            return true;\n        }\n        return false;\n    }\n\n\n    ///////////////////////////\n    //      OPERATIONS       //\n    ///////////////////////////\n\n    // Transactions:\n\n    // Transaction: add (or update) demographic answers of userAddr; only the ownerAddr can perform this transaction\n    function addDemographicsAnwsers(address userAddr, uint[9] memory answers) public {\n        // Check if the sender of this transaction is the owner\n        require(isOwner(msg.sender), \"Permission Denied! Only the owner can perform this operation\");\n\n        // Check if the user already exists: else, we are adding it so we need to set the first index to 1\n        if (!exists(userData[userAddr])) {\n            userData[userAddr][0] = 1;\n            usersNum++; // keeping track of the number of users\n            addressesList.push(userAddr);\n        }\n\n        // Store answers\n        for (uint i = 0; i < 9; i++) {\n            userData[userAddr][i+1] = answers[i];\n        }\n\n    }\n\n    // Transaction: add (or update) experience answers of userAddr; only the ownerAddr can perform this transaction\n    function addExperienceAnwsers(address userAddr, uint[9] memory answers) public {\n        // Check if the sender of this transaction is the owner\n        require(isOwner(msg.sender), \"Permission Denied! Only the owner can perform this operation\");\n\n        // Check if the user already exists: else, we are adding it so we need to set the first index to 1\n        if (!exists(userData[userAddr])) {\n            userData[userAddr][0] = 1;\n            usersNum++; // keeping track of the number of users\n            addressesList.push(userAddr);\n        }\n\n        // Store answers\n        for (uint i = 0; i < 9; i++) {\n            userData[userAddr][i+10] = answers[i];\n        }\n    }\n\n    // Transaction: add (or update) skills answers of userAddr; only the ownerAddr can perform this transaction\n    function addSkillsAnwsers(address userAddr, uint[60] memory answers) public {\n        // Check if the sender of this transaction is the owner\n        require(isOwner(msg.sender), \"Permission Denied! Only the owner can perform this operation\");\n\n        // Check if the user already exists: else, we are adding it so we need to set the first index to 1\n        if (!exists(userData[userAddr])) {\n            userData[userAddr][0] = 1;\n            usersNum++; // keeping track of the number of users\n            addressesList.push(userAddr);\n        }\n\n        // Store answers\n        for (uint i = 0; i < 60; i++) {\n            userData[userAddr][i+19] = answers[i];\n        }\n    }\n\n    // Transaction: add (or update) all the answers of userAddr; only the ownerAddr can perform this transaction\n    function addUserData(address userAddr, uint[78] memory answers) public {\n        // Check if the sender of this transaction is the owner\n        require(isOwner(msg.sender), \"Permission Denied! Only the owner can perform this operation\");\n\n        // Check if the user already exists: else, we are adding it so we need to set the first index to 1\n        if (!exists(userData[userAddr])) {\n            userData[userAddr][0] = 1;\n            usersNum++; // keeping track of the number of users\n            addressesList.push(userAddr);\n        }\n\n        // Store answers\n        for (uint i = 0; i < 78; i++) {\n            userData[userAddr][i+1] = answers[i];\n        }\n    }\n\n    // Transaction: reset all the data from userAddr; only the ownerAddr can perform this transaction\n    function resetUserData(address userAddr) public {\n        // Check if the sender of this transaction is the owner\n        require(isOwner(msg.sender), \"Permission Denied! Only the owner can perform this operation\");\n\n        // This function should also remove the address from addressesList\n\n        // Set all elements to 0\n        for (uint i = 0; i < 79; i++) {\n            userData[userAddr][i] = 0;\n        }\n\n        usersNum--;\n    }\n\n\n    // Calls:\n\n    // Call: get the number of users saved into the storage\n    function getUsersNum() public view returns(uint) {\n        return usersNum;\n    }\n\n    // Call: get the user's answers to the demographic survey; user's data can be read only by the user itself\n    function getDemographicsData() public view returns(uint[9] memory) {\n\n        // Check if the address is stored in the map\n        require(exists(userData[msg.sender]), \"User does not exist...\");\n\n        // Else\n        uint[9] memory returnArr;\n        for (uint i = 1; i < 10; i++) {\n            returnArr[i-1] = userData[msg.sender][i];\n        }\n\n        return returnArr;\n    }\n\n    // Call: get the user's answers to the experience survey; user's data can be read only by the user itself\n    function getExperienceData() public view returns(uint[9] memory) {\n\n        // Check if the address is stored in the map\n        require(exists(userData[msg.sender]), \"User does not exist...\");\n\n        // Else\n        uint[9] memory returnArr;\n        for (uint i = 10; i < 19; i++) {\n            returnArr[i-10] = userData[msg.sender][i];\n        }\n\n        return returnArr;\n    }\n\n    // Call: get the user's answers to the skills survey; user's data can be read only by the user itself\n    function getSkillsData() public view returns(uint[60] memory) {\n\n        // Check if the address is stored in the map\n        require(exists(userData[msg.sender]), \"User does not exist...\");\n\n        // Else\n        uint[60] memory returnArr;\n        for (uint i = 19; i < 79; i++) {\n            returnArr[i-19] = userData[msg.sender][i];\n        }\n\n        return returnArr;\n    }\n\n    // Call: get the user's data; user's data can be read only by the user itself\n    function getUserData() public view returns(uint[79] memory) {\n\n        // Check if the address is stored in the map\n        require(exists(userData[msg.sender]), \"User does not exist...\");\n\n        // Else\n        return userData[msg.sender];\n    }\n\n    // Call: allows the owner to read off all the data stored\n    // Maybe, in the future create a whitelist of organization addrs which can read off the stored data\n    function getUsersData() public view returns(uint[79][] memory) {\n\n       // Check if the sender of this call is the owner\n        require(isOwner(msg.sender), \"Permission Denied! Only the owner can perform this operation\");\n\n        uint[79][] memory ret = new uint[79][](usersNum);\n        for (uint i = 0; i < usersNum; i++) {\n            ret[i] = userData[addressesList[i]];\n        }\n\n        return ret;\n\n    }\n\n}",
  "sourcePath": "/home/roxen/workUrFreedom/blockchain/contracts/WorkUrFreedom.sol",
  "compiler": {
    "name": "solc",
    "version": "0.5.16+commit.9c3226ce.Emscripten.clang"
  },
  "schemaVersion": "3.1.0",
  "updatedAt": "2020-08-03T17:42:41.702Z",
  "networkType": "ethereum",
  "devdoc": {
    "methods": {}
  },
  "userdoc": {
    "methods": {
      "addDemographicsAnwsers(address,uint256[9])": {
        "notice": "////////////////////////"
      }
    }
  }
}